:020000040800F2
:1000000000800120492B0008992B0008992B00083B
:10001000992B0008992B0008992B0008000000007C
:10002000000000000000000000000000992B000804
:10003000992B000800000000992B00087921000886
:1000400000000000992B0008992B0008992B00084C
:10005000992B0008992B000805180008291800089A
:10006000992B0008992B0008992B0008000000002C
:100070000000000000000000000000000000000080
:100080000000000000000000992B000800000000A4
:10009000000000000000000000000000992B000894
:1000A000992B0008992B0008992B0008992B000820
:1000B0006D290008992B0008992B0008992B00083E
:1000C000992B0008992B0008992B0008992B000800
:1000D000992B0008992B00086926000800000000F1
:1000E000992B0008992B0008992B000800000000AC
:1000F0000000000000000000000000000000000000
:1001000000000000992B0008992B0008992B00088B
:1001100000000000000000000000000000000000DF
:1001200000000000000000000000000000000000CF
:1001300000000000000000000000000000000000BF
:10014000000000000000000000000000992B0008E3
:10015000000000000000000000000000992B0008D3
:10016000992B0008992B00080000000000000000F7
:10017000000000000000000000000000000000007F
:1001800000000000992B00080000000000000000A3
:04019000992B00089F
:1001980010B5054C237833B9044B13B10448AFF3B9
:1001A80000800123237010BD000000200000000023
:1001B800E42B000808B5034B1BB103490348AFF310
:1001C800008008BD0000000004000020E42B0008A7
:1001D80081F0004102E000BF83F0004330B54FEAF0
:1001E80041044FEA430594EA050F08BF90EA020F5D
:1001F8001FBF54EA000C55EA020C7FEA645C7FEAF0
:10020800655C00F0E2804FEA5454D4EB5555B8BF12
:100218006D420CDD2C4480EA020281EA030382EA83
:10022800000083EA010180EA020281EA0303362D15
:1002380088BF30BD11F0004F4FEA01314FF4801CE8
:100248004CEA113102D0404261EB410113F0004FFA
:100258004FEA03334CEA133302D0524263EB4303B1
:1002680094EA050F00F0A780A4F10104D5F1200E4F
:100278000DDB02FA0EFC22FA05F2801841F10001AA
:1002880003FA0EF2801843FA05F359410EE0A5F17E
:1002980020050EF1200E012A03FA0EFC28BF4CF0AF
:1002A800020C43FA05F3C01851EBE37101F0004565
:1002B80007D54FF0000EDCF1000C7EEB00006EEB72
:1002C8000101B1F5801F1BD3B1F5001F0CD34908FC
:1002D8005FEA30004FEA3C0C04F101044FEA445253
:1002E80012F5800F80F09A80BCF1004F08BF5FEADA
:1002F800500C50F1000041EB045141EA050130BDBA
:100308005FEA4C0C404141EB0101013C28BFB1F5CB
:10031800801FE9D291F0000F04BF01460020B1FA16
:1003280081F308BF2033A3F10B03B3F120020CDAE9
:100338000C3208DD02F1140CC2F10C0201FA0CF0C7
:1003480021FA02F10CE002F11402D8BFC2F1200C2C
:1003580001FA02F120FA0CFCDCBF41EA0C019040E2
:10036800E41AA2BF01EB0451294330BD6FEA04042B
:100378001F3C1CDA0C340EDC04F11404C4F1200216
:1003880020FA04F001FA02F340EA030021FA04F328
:1003980045EA030130BDC4F10C04C4F1200220FA7F
:1003A80002F001FA04F340EA0300294630BD21FABD
:1003B80004F0294630BD94F0000F83F4801306BF83
:1003C80081F480110134013D4EE77FEA645C18BF77
:1003D8007FEA655C29D094EA050F08BF90EA020F0E
:1003E80005D054EA000C04BF1946104630BD91EA06
:1003F800030F1EBF0021002030BD5FEA545C05D109
:100408004000494128BF41F0004130BD14F5800447
:100418003CBF01F5801130BD01F0004545F0FE41BB
:1004280041F470014FF0000030BD7FEA645C1ABFF0
:10043800194610467FEA655C1CBF0B46024650EA27
:10044800013406BF52EA033591EA030F41F4002153
:1004580030BD00BF90F0000F04BF0021704730B5D9
:100468004FF4806404F132044FF000054FF00001AE
:1004780050E700BF90F0000F04BF0021704730B56F
:100488004FF4806404F1320410F0004548BF404244
:100498004FF000013EE700BF42004FEAE2014FEA99
:1004A80031014FEA02701FBF12F07F4393F07F4F74
:1004B80081F06051704732F07F4208BF704793F077
:1004C8007F4F04BF41F40021704730B54FF460748A
:1004D80001F0004521F000411CE700BF50EA01028D
:1004E80008BF704730B54FF000050AE050EA010236
:1004F80008BF704730B511F0004502D5404261EBA6
:1005080041014FF4806404F132045FEA915C3FF4E6
:10051800D8AE4FF003025FEADC0C18BF03325FEA83
:10052800DC0C18BF033202EBDC02C2F1200300FA34
:1005380003FC20FA02F001FA03FE40EA0E0021FA59
:1005480002F11444BDE600BF70B54FF0FF0C4CF447
:10055800E06C1CEA11541DBF1CEA135594EA0C0FF9
:1005680095EA0C0F00F0DEF82C4481EA030621EA34
:100578004C5123EA4C5350EA013518BF52EA03356F
:1005880041F4801143F4801338D0A0FB02CE4FF021
:100598000005E1FB02E506F00042E0FB03E54FF051
:1005A8000006E1FB03569CF0000F18BF4EF0010E49
:1005B800A4F1FF04B6F5007F64F5407404D25FEA45
:1005C8004E0E6D4146EB060642EAC62141EA5551F8
:1005D8004FEAC52040EA5E504FEACE2EB4F1FD0C3A
:1005E80088BFBCF5E06F1ED8BEF1004F08BF5FEAB8
:1005F800500E50F1000041EB045170BD06F000466A
:1006080046EA010140EA020081EA0301B4EB5C0416
:10061800C2BFD4EB0C0541EA045170BD41F480110E
:100628004FF0000E013C00F3AB8014F1360FDEBF33
:10063800002001F0004170BDC4F10004203C35DA0F
:100648000C341BDC04F11404C4F1200500FA05F392
:1006580020FA04F001FA05F240EA020001F0004233
:1006680021F0004110EBD37021FA04F642EB0601A9
:100678005EEA430E08BF20EAD37070BDC4F10C04D3
:10068800C4F1200500FA04F320FA05F001FA04F297
:1006980040EA020001F0004110EBD37041F1000183
:1006A8005EEA430E08BF20EAD37070BDC4F120058E
:1006B80000FA05F24EEA020E20FA04F301FA05F2F6
:1006C80043EA020321FA04F001F0004121FA04F29E
:1006D80020EA020000EBD3705EEA430E08BF20EA6E
:1006E800D37070BD94F0000F0FD101F000464000A8
:1006F80041EB010111F4801F08BF013CF7D041EA2A
:10070800060195F0000F18BF704703F0004652002D
:1007180043EB030313F4801F08BF013DF7D043EAFE
:100728000603704794EA0C0F0CEA135518BF95EAB4
:100738000C0F0CD050EA410618BF52EA4306D1D13B
:1007480081EA030101F000414FF0000070BD50EA5A
:10075800410606BF1046194652EA430619D094EAE4
:100768000C0F02D150EA013613D195EA0C0F05D1CE
:1007780052EA03361CBF104619460AD181EA030122
:1007880001F0004141F0FE4141F470014FF00000DA
:1007980070BD41F0FE4141F4780170BD70B54FF075
:1007A800FF0C4CF4E06C1CEA11541DBF1CEA1355F5
:1007B80094EA0C0F95EA0C0F00F0A7F8A4EB0504D7
:1007C80081EA030E52EA03354FEA013100F08880CE
:1007D8004FEA03334FF0805545EA131343EA126397
:1007E8004FEA022245EA111545EA10654FEA00264C
:1007F8000EF000419D4208BF964244F1FD0404F505
:10080800407402D25B084FEA3202B61A65EB030560
:100818005B084FEA32024FF480104FF4002CB6EB1D
:10082800020E75EB030E22BFB61A754640EA0C009D
:100838005B084FEA3202B6EB020E75EB030E22BFDD
:10084800B61A754640EA5C005B084FEA3202B6EB1E
:10085800020E75EB030E22BFB61A754640EA9C00DD
:100868005B084FEA3202B6EB020E75EB030E22BFAD
:10087800B61A754640EADC0055EA060E18D04FEA6B
:10088800051545EA16754FEA06164FEAC30343EA0B
:1008980052734FEAC2025FEA1C1CC0D111F4801FD8
:1008A8000BD141EA00014FF000004FF0004CB6E7D1
:1008B80011F4801F04BF01430020B4F1FD0C88BF70
:1008C800BCF5E06F3FF6AFAEB5EB030C04BFB6EB7B
:1008D800020C5FEA500C50F1000041EB045170BD6E
:1008E8000EF0004E4EEA113114EB5C04C2BFD4EB9B
:1008F8000C0541EA045170BD41F480114FF0000E1F
:10090800013C90E645EA060E8DE60CEA135594EA9A
:100918000C0F08BF95EA0C0F3FF43BAF94EA0C0F9D
:100928000AD150EA01347FF434AF95EA0C0F7FF412
:1009380025AF104619462CE795EA0C0F06D152EA66
:1009480003353FF4FDAE1046194622E750EA41064A
:1009580018BF52EA43067FF4C5AE50EA41047FF45B
:100968000DAF52EA43057FF4EBAE12E74FF0FF3CC0
:1009780006E000BF4FF0010C02E000BF4FF0010C91
:100988004DF804CD4FEA410C7FEA6C5C4FEA430C0A
:1009980018BF7FEA6C5C1BD001B050EA410C0CBF59
:1009A80052EA430C91EA030F02BF90EA020F0020BB
:1009B800704710F1000F91EA030F58BF994208BF22
:1009C80090422CBFD8176FEAE37040F001007047DF
:1009D8004FEA410C7FEA6C5C02D150EA013C07D136
:1009E8004FEA430C7FEA6C5CD6D152EA033CD3D081
:1009F8005DF8040B704700BF8446104662468C467B
:100A08001946634600E000BF01B5FFF7B7FF0028AD
:100A180048BF10F1000F01BD4DF808EDFFF7F4FFD6
:100A28000CBF012000205DF808FB00BF4DF808ED61
:100A3800FFF7EAFF34BF012000205DF808FB00BF84
:100A48004DF808EDFFF7E0FF94BF012000205DF8A6
:100A580008FB00BF4DF808EDFFF7CEFF94BF01205B
:100A680000205DF808FB00BF4DF808EDFFF7C4FF54
:100A780034BF012000205DF808FB00BF4A0011D2F6
:100A880012F5001211D20DD56FF47873B3EB6252E0
:100A98000ED44FEAC12343F0004343EA505323FAEC
:100AA80002F070474FF00000704750EA013002D161
:100AB8004FF0FF3070474FF00000704780B500AF2F
:100AC80001220B21032000F0BDFE00220B21032090
:100AD80000F030FF00220B21032001F00DF8012265
:100AE8000A21032000F0AEFE00220A21032000F0B4
:100AF80021FF00220A21032000F0FEFF00BF80BD75
:100B080080B582B000AF0346FB71FB79002B02D0A1
:100B1800012B0BD015E001220A21032001F0C8F8AF
:100B280000220B21032001F0C3F80AE000220A2169
:100B3800032001F0BDF801220B21032001F0B8F8D1
:100B480000BF00BF0837BD4680BD80B500AF00229A
:100B58000A21032001F0ACF800220B21032001F048
:100B6800A7F800BF80BD80B582B000AF0346FB7117
:100B7800FB79012B02D0022B04D007E0322001F0D0
:100B8800A1FB03E0632001F09DFB00BF00BF083715
:100B9800BD4680BD80B500AF01220221032000F0D0
:100BA80051FE01220021032000F04CFE0022022108
:100BB800032000F0BFFE00220021032000F0BAFE4F
:100BC80000220221032000F027FF00220021032039
:100BD80000F022FF00220221032000F08DFF0022F6
:100BE8000021032000F088FF01220421032000F0E7
:100BF80029FE01220521032000F024FE01220621FE
:100C0800032000F01FFE01220721032000F01AFE36
:100C180000220421032000F08DFE0022052103207C
:100C280000F088FE00220621032000F083FE002247
:100C38000721032000F07EFE00220421032000F09B
:100C4800EBFE00220521032000F0E6FE002206212B
:100C5800032000F0E1FE00220721032000F0DCFE63
:100C680000220421032000F047FF00220521032071
:100C780000F042FF00220621032000F03DFF002281
:100C88000721032000F038FF4FF47A7000F0E4FAEF
:100C9800332000F00EF8322000F00BF8282000F086
:100CA80008F8012000F005F80C2000F002F800BF59
:100CB80080BD80B582B000AF0346FB7100220221DF
:100CC800032000F0F5FFFB791B09DBB203F00103F9
:100CD800DBB21A460421032000F0EAFFFB795B0926
:100CE800DBB203F00103DBB21A460521032000F052
:100CF800DFFFFB799B09DBB203F00103DBB21A4685
:100D08000621032000F0D4FFFB79DB09DBB21A4689
:100D18000721032000F0CCFF01220021032000F06E
:100D2800C7FF052000F098FA00220021032000F0F8
:100D3800BFFF052000F090FAFB791B01FB71FB79DE
:100D48001B09DBB203F00103DBB21A4604210320BE
:100D580000F0AEFFFB795B09DBB203F00103DBB205
:100D68001A460521032000F0A3FFFB799B09DBB29B
:100D780003F00103DBB21A460621032000F098FFB6
:100D8800FB79DB09DBB21A460721032000F090FF4C
:100D980001220021032000F08BFF052000F05CFAFF
:100DA80000220021032000F083FF00BF0837BD4662
:100DB80080BD80B582B000AF0346FB7101220221DD
:100DC800032000F075FFFB791B09DBB203F0010378
:100DD800DBB21A460421032000F06AFFFB795B09A5
:100DE800DBB203F00103DBB21A460521032000F051
:100DF8005FFFFB799B09DBB203F00103DBB21A4604
:100E08000621032000F054FFFB79DB09DBB21A4608
:100E18000721032000F04CFF01220021032000F0ED
:100E280047FF052000F018FA00220021032000F0F7
:100E38003FFF052000F010FAFB791B01FB71FB79DD
:100E48001B09DBB203F00103DBB21A4604210320BD
:100E580000F02EFFFB795B09DBB203F00103DBB284
:100E68001A460521032000F023FFFB799B09DBB21A
:100E780003F00103DBB21A460621032000F018FF35
:100E8800FB79DB09DBB21A460721032000F010FFCB
:100E980001220021032000F00BFF052000F0DCF9FF
:100EA80000220021032000F003FF00BF0837BD46E1
:100EB80080BD80B582B000AF0346FB71FB79B42BCF
:100EC80010D0B42B13DC002B02D05A2B05D00EE027
:100ED8004FF4FA7001F064FA09E040F2EE2001F0F4
:100EE8005FFA04E04FF47A7001F05AFA00BF00BFCD
:100EF8000837BD4680BD80B582B000AF0346FB71A0
:100F0800FB79B42B10D0B42B13DC002B02D05A2B56
:100F180005D00EE04FF4FA7001F0B0FA09E040F2A3
:100F2800EE2001F0ABFA04E04FF47A7001F0A6FA73
:100F380000BF00BF0837BD4680BD80B500AF0322A3
:100F48000121002000F07EFC022000F0D1F900F021
:100F580031FA0021012000F05BFA002000F038FA95
:100F680000BF80BD80B582B000AF0023FB80BB1DF1
:100F7800184600F0C5FAFB881A464FF4FA7303FBCB
:100F880002F2074BA3FB0213D21A52081344DB0ADE
:100F98009BB2FB80FB8818460837BD4680BD00BF62
:100FA8000101100080B500AF002000F045FB0121D1
:100FB800002000F057FB0021012000F0A9FB00BF32
:100FC80080BD80B500AF012000F036FB0121012073
:100FD80000F048FB0121022000F09AFB00BF80BD11
:100FE80080B582B000AF7860786800F0F7FB00BF8A
:100FF8000837BD4680BD80B582B000AF786078689C
:1010080000F0DCFB00BF0837BD4680BD80B500AFEF
:1010180001220821002000F015FC002206210020F2
:1010280000F010FC00BF80BD80B586B000AF4FF067
:1010380000024FF00003C7E9042300220821002022
:1010480000F036FE0A2000F02EF9012208210020C7
:1010580000F02EFE0A2000F026F9002208210020C8
:1010680000F026FE00BF0621002000F0B5FD034673
:10107800002BF8D00AE04FF000022B4BD7E904010F
:10108800FFF7ACF802460B46C7E904230621002007
:1010980000F0A2FD0346002BEDD14FF000024FF007
:1010A8000003D7E90401FFF7DFFC0346002B28D033
:1010B80019A3D3E90023D7E90401FFF745FA02464B
:1010C8000B46C7E9002316A3D3E90023D7E900019B
:1010D800FFF73AFA02460B46104619464FF000024F
:1010E8004FF08043FFF75AFB02460B46104619465D
:1010F8004FF000020D4BFFF727FA02460B46C7E9EF
:101108000223D7E90201FFF7B9FC0346184618374E
:10111800BD4680BDAFF300808DEDB5A0F7C6703E2B
:101128000000000080C014410000F03F0000FC3FB8
:1011380080B500AF01220821022000F083FB0022C5
:101148000621022000F07EFB00BF80BD00000000E9
:1011580080B586B000AF4FF000024FF00003C7E93A
:10116800042300220821022000F0A2FD0A2000F03A
:101178009AF801220821022000F09AFD0A2000F0C6
:1011880092F800220821022000F092FD00BF0621FB
:10119800022000F021FD0346002BF8D00AE04FF0B2
:1011A80000022B4BD7E90401FFF718F802460B465B
:1011B800C7E904230621022000F00EFD0346002B98
:1011C800EDD14FF000024FF00003D7E90401FFF71B
:1011D8004BFC0346002B28D019A3D3E90023D7E9F9
:1011E8000401FFF7B1F902460B46C7E9002316A32D
:1011F800D3E90023D7E90001FFF7A6F902460B4619
:10120800104619464FF000024FF08043FFF7C6FA28
:1012180002460B46104619464FF000020D4BFFF7E9
:1012280093F902460B46C7E90223D7E90201FFF703
:1012380025FC034618461837BD4680BDAFF300802D
:101248008DEDB5A0F7C6703E0000000080C01441C7
:101258000000F03F0000FC3F80B485B000AF0346BB
:10126800FB800023FB8112E00023BB8104E0BB89E3
:101278009BB201339BB2BB81BB899BB240F66B42E8
:101288009342F4D9FB899BB201339BB2FB81FB8962
:101298009BB2FA889A42E7D800BF00BF1437BD4610
:1012A8005DF8047B704780B485B000AF0346FB80CF
:1012B8000023FB8110E00023BB8104E0BB899BB2C3
:1012C80001339BB2BB81BB899BB2022BF6D9FB8948
:1012D8009BB201339BB2FB81FB899BB2FA889A428D
:1012E800E9D800BF00BF1437BD465DF8047B7047DE
:1012F80080B582B000AF0346FB71244B0F229A7071
:10130800234B1B68224A23F440031360204B204AD6
:101318001B6813601D4B00221A701C4B00225A7068
:101328001C4A53686FF3196353601A4A93686FF342
:10133800CB239360184B194A1A60174B184A5A6006
:10134800154B184A9A60144B174ADA60124B174A21
:101358001A61114B164A5A610F4B1B6898470B4A82
:10136800FB7993700C4B1B689847FB79002B04D0D2
:10137800FB79094A52F823309847064A936843F0A4
:101388000103936000BF0837BD4680BD1C000020E4
:1013980004230140002001402800002045150008D2
:1013A80089150008A5150008CD150008F5150008D1
:1013B8002516000880B400AF044A936843F001037F
:1013C800936000BFBD465DF8047B70470020014074
:1013D80080B483B000AF0346FB71FB79002B02D0C9
:1013E800012B06D00BE0094A936843F080439360D1
:1013F80005E0064A936843F48003936000BF00BF8A
:101408000C37BD465DF8047B704700BF00200140E3
:1014180080B485B000AF03460A46FB711346BB7122
:10142800FF23FB73334B1B78BA799A425AD8BB799E
:101438000F2B57D8BB79304AA2FB03239B08DBB29A
:10144800C3F10203BB73BA792B4BA3FB02139908B0
:101458000B465B000B445B00D31A7B73274ABB7BAC
:101468000A339B00134459687A7B13469B00134444
:101478001F2202FA03F3DA432048BB7B0A400A33EF
:101488009B0003445A601D4ABB7B0A339B001344EC
:101498005968F8797A7B13469B00134400FA03F3E2
:1014A8001A461648BB7B0A430A339B0003445A601A
:1014B800104B1B78BA799A4212D10E4B1B78013324
:1014C800DAB20C4B1A700D4BDB6A0C4A23F470032A
:1014D800D3620A4BDA6ABB791B0508491343CB620E
:1014E800BB79FB73FB7B18461437BD465DF8047B5C
:1014F800704700BF1C000020ABAAAAAA0020014028
:1015080080B483B000AF78600B4A936843F080439F
:10151800936000BF084B1B68C3F34003DBB2002B8A
:10152800F8D0054BDB6C9AB27B681A8000BF0C3789
:10153800BD465DF8047B70470020014080B400AFD1
:101548000E4A53686FF3082353600C4A93686FF38D
:101558008A239360094A93686FF31D739360074A5F
:1015680093686FF341039360044A53686FF3CB2386
:10157800536000BFBD465DF8047B70470020014002
:1015880080B400AF044A936843F48063936000BF5B
:10159800BD465DF8047B70470020014080B400AF71
:1015A800074A936843F480639360054A936843F05D
:1015B8000203936000BFBD465DF8047B704700BF1F
:1015C8000020014080B400AF074A536843F4807399
:1015D8005360054A936843F48063936000BFBD4637
:1015E8005DF8047B704700BF0020014080B400AF65
:1015F800094A536843F480735360074A936843F475
:1016080080639360044A936843F00203936000BFC9
:10161800BD465DF8047B70470020014080B400AFF0
:10162800044A536843F48073536000BFBD465DF8B5
:10163800047B70470020014080B483B000AF0346AC
:10164800FB71074B1A68FB79012101FA03F304497E
:1016580013430B6000BF0C37BD465DF8047B704731
:10166800003C014080B483B000AF03460A46FB71DA
:101678001346BB71BB79022B2ED0022B3FDC002B0B
:1016880002D0012B14D03AE0204BDA68FB79012113
:1016980001FA03F31D491343CB601C4B9A68FB798D
:1016A800012101FA03F3DB43184913408B6026E05C
:1016B800164B9A68FB79012101FA03F31349134386
:1016C8008B60124BDA68FB79012101FA03F3DB43E3
:1016D8000E491340CB6012E00C4BDA68FB7901210C
:1016E80001FA03F309491343CB60084B9A68FB7965
:1016F800012101FA03F3054913438B6000BF00BFC2
:101708000C37BD465DF8047B704700BF003C0140C4
:1017180080B485B000AF03460A46FB711346BB711F
:10172800BB79FB73FB7B032B0BD8234B9B68F979A5
:10173800FA7B920001FA02F211461F4A0B439360AA
:1017480034E0FB7B072B0ED8FB7B043BFB731A4B67
:10175800DB68F979FA7B920001FA02F21146164A1F
:101768000B43D36022E0FB7B0B2B0ED8FB7B083BA3
:10177800FB73114B1B69F979FA7B920001FA02F2AB
:1017880011460D4A0B43136110E0FB7B0F2B0DD85C
:10179800FB7B0C3BFB73084B5B69F979FA7B920086
:1017A80001FA02F21146044A0B43536100BF143791
:1017B800BD465DF8047B70470038014080B483B0B3
:1017C80000AF7860044A7B68136000BF0C37BD46E1
:1017D8005DF8047B704700BF4800002080B483B0E8
:1017E80000AF7860044A7B68136000BF0C37BD46C1
:1017F8005DF8047B704700BF4400002080B500AF4F
:10180800054B5B69044A43F001035361034B1B68B2
:10181800984700BF80BD00BF003C01404400002045
:1018280080B500AF054B5B69044A43F0020353617E
:10183800034B1B68984700BF80BD00BF003C0140B8
:101848004800002080B483B000AF0346FB710B460C
:10185800BB7113467B71FB79052B57D801A252F84F
:1018680023F000BF851800089D180008B518000867
:10187800CD180008E5180008FD180008274B1B685C
:101888007979BA79520001FA02F21146234A0B43D8
:1018980013603CE0224B1B687979BA79520001FA4F
:1018A80002F211461E4A0B43136030E01D4B1B68C1
:1018B8007979BA79520001FA02F21146194A0B43B2
:1018C800136024E0184B1B687979BA79520001FA41
:1018D80002F21146144A0B43136018E0134B1B68BD
:1018E8007979BA79520001FA02F211460F4A0B438C
:1018F80013600CE00E4B1B687979BA79520001FA33
:1019080002F211460A4A0B43136000E000BF00BF11
:101918000C37BD465DF8047B704700BF00000240ED
:101928000004024000080240000C0240001002407F
:10193800001C024080B483B000AF0346FB710B4625
:10194800BB7113467B71FB79052B51D801A252F864
:1019580023F000BF751900088B190008A1190008A9
:10196800B7190008CD190008E3190008244B5B6873
:101978007979BA7901FA02F21146214A0B43536088
:1019880037E0204B5B687979BA7901FA02F211469F
:101998001C4A0B4353602CE01B4B5B687979BA797E
:1019A80001FA02F21146184A0B43536021E0174B23
:1019B8005B687979BA7901FA02F21146134A0B4346
:1019C800536016E0124B5B687979BA7901FA02F232
:1019D80011460F4A0B4353600BE00E4B5B68797955
:1019E800BA7901FA02F211460A4A0B43536000E041
:1019F80000BF00BF0C37BD465DF8047B704700BFD1
:101A0800000002400004024000080240000C0240AE
:101A180000100240001C024080B485B000AF0346AD
:101A2800B9607A60FB73FB7B052B51D801A252F891
:101A380023F000BF551A00086B1A0008811A000825
:101A4800971A0008AD1A0008C31A0008244B9A68B0
:101A5800BB685B00796801FA03F3214913438B6083
:101A680037E0204B9A68BB685B00796801FA03F39A
:101A78001C4913438B602CE01B4B9A68BB685B00C6
:101A8800796801FA03F3184913438B6021E0174B77
:101A98009A68BB685B00796801FA03F3134913433A
:101AA8008B6016E0124B9A68BB685B00796801FA94
:101AB80003F30F4913438B600BE00E4B9A68BB6826
:101AC8005B00796801FA03F30A4913438B6000E06D
:101AD80000BF00BF1437BD465DF8047B704700BFE8
:101AE800000002400004024000080240000C0240CE
:101AF80000100240001C024080B485B000AF0346CD
:101B0800B9607A60FB73FB7B052B51D801A252F8B0
:101B180023F000BF351B00084B1B0008611B0008A1
:101B2800771B00088D1B0008A31B0008244BDA68EC
:101B3800BB685B00796801FA03F321491343CB6062
:101B480037E0204BDA68BB685B00796801FA03F379
:101B58001C491343CB602CE01B4BDA68BB685B0065
:101B6800796801FA03F318491343CB6021E0174B56
:101B7800DA68BB685B00796801FA03F31349134319
:101B8800CB6016E0124BDA68BB685B00796801FA33
:101B980003F30F491343CB600BE00E4BDA68BB68C5
:101BA8005B00796801FA03F30A491343CB6000E04C
:101BB80000BF00BF1437BD465DF8047B704700BF07
:101BC800000002400004024000080240000C0240ED
:101BD80000100240001C024080B485B000AF0346EC
:101BE8000A46FB711346BB710023FB73FB79052B77
:101BF8004AD801A252F823F0191C00082D1C00082D
:101C0800411C0008551C0008691C00087D1C0008C0
:101C1800214B1A69BB7922FA03F3DBB203F0010303
:101C2800FB7332E01D4B1A69BB7922FA03F3DBB26E
:101C380003F00103FB7328E0194B1A69BB7922FAF8
:101C480003F3DBB203F00103FB731EE0154B1A69C3
:101C5800BB7922FA03F3DBB203F00103FB7314E050
:101C6800114B1A69BB7922FA03F3DBB203F00103C3
:101C7800FB730AE00D4B1A69BB7922FA03F3DBB256
:101C880003F00103FB7300E000BFFB7B1846143729
:101C9800BD465DF8047B7047000002400004024026
:101CA80000080240000C024000100240001C0240E4
:101CB80080B483B000AF0346FB710B46BB7113467B
:101CC8007B717B79012B4FD1FB79052B00F2A0802A
:101CD80001A252F823F000BFF91C00080D1D0008EE
:101CE800211D0008351D0008491D00085D1D00085C
:101CF8004C4B5A69BB79012101FA03F34949134353
:101D08004B6188E0484B5A69BB79012101FA03F31A
:101D1800454913434B617EE0444B5A69BB79012125
:101D280001FA03F3414913434B6174E0404B5A698C
:101D3800BB79012101FA03F33D4913434B616AE082
:101D48003C4B5A69BB79012101FA03F33949134322
:101D58004B6160E0384B5A69BB79012101FA03F302
:101D6800354913434B6156E0FB79052B52D801A244
:101D780052F823F0951D0008AB1D0008C11D00088E
:101D8800D71D0008ED1D0008031E0008254B5A69E1
:101D9800BB79012101FA03F3DB43224913404B616C
:101DA80039E0214B5A69BB79012101FA03F3DB437E
:101DB8001D4913404B612EE01C4B5A69BB79012128
:101DC80001FA03F3DB43194913404B6123E0184B35
:101DD8005A69BB79012101FA03F3DB431449134023
:101DE8004B6118E0134B5A69BB79012101FA03F3DF
:101DF800DB43104913404B610DE00F4B5A69BB7927
:101E0800012101FA03F3DB430B4913404B6102E064
:101E180000BF00E000BF00BF0C37BD465DF8047B83
:101E2800704700BF00000240000402400008024062
:101E3800000C024000100240001C024080B483B035
:101E480000AF0346FB710B46BB7113467B71BB7930
:101E5800072B5BD8FB79052B00F2B68001A252F85C
:101E680023F000BF851E00089D1E0008B51E00084F
:101E7800CD1E0008E51E0008FD1E0008574B1B6A12
:101E88007979BA79920001FA02F21146534A0B4362
:101E980013629CE0524B1B6A7979BA79920001FA75
:101EA80002F211464E4A0B43136290E04D4B1B6AF7
:101EB8007979BA79920001FA02F21146494A0B433C
:101EC800136284E0484B1B6A7979BA79920001FA67
:101ED80002F21146444A0B43136278E0434B1B6AF3
:101EE8007979BA79920001FA02F211463F4A0B4316
:101EF80013626CE03E4B1B6A7979BA79920001FA59
:101F080002F211463A4A0B43136260E0BB7903F0D0
:101F18000703BB71FB79052B58D801A252F823F0AF
:101F2800411F0008591F0008711F0008891F000879
:101F3800A11F0008B91F0008284B5B6A7979BA7994
:101F4800920001FA02F21146244A0B4353623EE022
:101F5800234B5B6A7979BA79920001FA02F2114649
:101F68001F4A0B43536232E01E4B5B6A7979BA7998
:101F7800920001FA02F211461A4A0B43536226E014
:101F8800194B5B6A7979BA79920001FA02F2114623
:101F9800154A0B4353621AE0144B5B6A7979BA7994
:101FA800920001FA02F21146104A0B4353620EE006
:101FB8000F4B5B6A7979BA79920001FA02F21146FD
:101FC8000B4A0B43536202E000BF00E000BF00BFB2
:101FD8000C37BD465DF8047B704700BF0000024027
:101FE8000004024000080240000C024000100240B9
:101FF800001C024080B483B000AF0346FB7197F920
:1020080007301F2B07DC97F90730154A012101FA21
:1020180003F313601EE097F907303F2B0BDCFB79C5
:10202800203BDBB2FB7197F907300D4A012101FA19
:1020380003F353600EE097F90730542B0ADCFB7961
:10204800403BDBB2FB7197F90730054A012101FAE1
:1020580003F3536000BF0C37BD465DF8047B70473F
:1020680000E100E080B483B000AF03460A46FB718C
:102078001346BB71FB79032B32D801A252F823F027
:1020880099200008AD200008C1200008D5200008CC
:10209800174B1A68BB79012101FA03F3144913435A
:1020A8000B601EE0134B1A68BB79012101FA03F398
:1020B800104913430B6014E00F4B1A68BB790121D8
:1020C80001FA03F30C4913430B600AE00B4B1A683F
:1020D800BB79012101FA03F3084913430B6000E0BF
:1020E80000BF00BF0C37BD465DF8047B704700BFDA
:1020F8003038024034380240403802404438024008
:1021080080B400AF0B4B9B680A4A23F0010393602D
:10211800084B9B68074A23F002039360054B1B6832
:10212800044A43F00103136000BFBD465DF8047B19
:10213800704700BF0038024080B400AF0B4B1B68EB
:102148000A4A23F001031360084B1B68074A23F06F
:1021580002031360054B1B68044A23F00403136051
:1021680000BFBD465DF8047B704700BF10E000E08B
:1021780080B582B000AF0023FB71124B1B689847F3
:10218800114B1B78DBB2002B11D1104B1B680F4A87
:1021980023F0020313600D4B00229A600B4B0022C0
:1021A8005A600A4B1B68094A23F001031360074B66
:1021B8001B681B0CDBB203F00103FB7100BF08377F
:1021C800BD4680BD4C0000205000002010E000E01B
:1021D80080B400AF4FF0804343F67F629A624FF0BD
:1021E80080434FF4FA72DA624FF080431B684FF075
:1021F800804223F0100313604FF080431B684FF0B8
:10220800804243F0800313604FF08043DB684FF057
:10221800804243F00103D3604FF080431B684FF0C6
:10222800804243F00103136000BFBD465DF8047BA4
:102238007047000080B400AF214B01229A62204B06
:102248009B691F4A23F0010393611D4B9B691C4A3C
:1022580023F0020393611A4B5B69194A43F00103A7
:102268005361174B1B68164A23F010031360144B75
:102278001B68134A43F080031360114B9B69104A93
:1022880023F0100393610E4B9B690D4A43F0200322
:1022980093610B4B9B690A4A43F040039361084BD7
:1022A8009B69074A43F008039361054B1B6A044A7C
:1022B80043F00103136200BFBD465DF8047B70471D
:1022C800000C004080B483B000AF0346FB710D4B97
:1022D80043F67F62DA62FB794FF47A5202FB03F32A
:1022E800084A0949A1FB03135B095363054B1B68A3
:1022F800044A43F00103136000BF0C37BD465DF884
:10230800047B7047000C00401F85EB5180B400AF80
:10231800224B40F23F129A62204B9B691F4A23F4DA
:10232800807393611D4B9B691C4A23F4007393616E
:102338001A4B5B69194A43F001035361174B1B6839
:10234800164A23F010031360144B1B68134A43F01A
:1023580080031360114B9B69104A23F480539361E7
:102368000E4B9B690D4A43F4005393610B4B9B69D9
:102378000A4A43F480439361084B9B69074A43F434
:1023880000639361054B1B6A044A43F01003136210
:1023980000BFBD465DF8047B704700BF00040040E5
:1023A80080B483B000AF0346FB800D4B40F2E732A8
:1023B800DA62FB884FF47A7202FB03F3084A094990
:1023C800A1FB03135B0B9363054B1B68044A43F0A3
:1023D8000103136000BF0C37BD465DF8047B7047EE
:1023E800000400405917B7D180B400AF224B40F227
:1023F8003F129A62204B9B691F4A23F001039361A5
:102408001D4B9B691C4A23F0020393611A4B5B69BD
:10241800194A43F001035361174B1B68164A23F00E
:1024280010031360144B1B68134A43F080031360B6
:10243800114B9B69104A23F0100393610E4B9B6963
:102448000D4A43F0200393610B4B9B690A4A43F002
:1024580040039361084B9B69074A43F00803936163
:10246800054B1B6A044A43F00103136200BFBD46D3
:102478005DF8047B704700BF0008004080B483B05B
:1024880000AF0346FB800D4B40F2E732DA62FB886F
:102498004FF47A7202FB03F3084A0949A1FB0313BC
:1024A8005B0B5363054B1B68044A43F0010313603D
:1024B80000BF0C37BD465DF8047B7047000800403C
:1024C8005917B7D180B400AF1D4AD3686FF3000322
:1024D800D3601B4AD36843F00803D360184AD36813
:1024E80043F02003D360164AD36843F00403D36053
:1024F800134AD3686FF38613D360114AD3686FF316
:102508008A23D3600E4AD3686FF34923D3600C4AF9
:10251800D3686FF30C33D360094AD3686FF3CF33B2
:10252800D360074B40F283629A60054B1B69044AEB
:1025380043F48053136100BFBD465DF8047B7047C8
:102548000044004080B584B000AF0346FB71FB79BE
:10255800184600F04DF8F860FA68D36843F4005361
:10256800D36000BF1037BD4680BD80B584B000AFD2
:1025780003463960FB71FB79184600F039F8F860BA
:10258800FA68D36843F40053D36000BFFB681B6844
:10259800DB0903F00103002BF8D03B681B781A46CF
:1025A800FB685A6000BFFB681B689B0903F00103C6
:1025B800002BF8D000BF00BF1037BD4680BD80B5E6
:1025C80084B000AF0346FB71FB79184600F010F8A1
:1025D800F860FA68D36843F40053D3600023FB72B1
:1025E800FB685B68FB72FB7A18461037BD4680BDF6
:1025F80080B485B000AF0346FB710023FB60FB7914
:10260800062B0CD0062B0DDC012B02D0022B03D09D
:1026180008E0084BFB6006E0074BFB6003E0074B54
:10262800FB6000E000BFFB6818461437BD465DF844
:10263800047B704700100140004400400014014032
:1026480080B483B000AF7860044A7B68136000BF31
:102658000C37BD465DF8047B704700BF540000206E
:1026680080B500AF034B00221A60034B1B689847E4
:1026780000BF80BD004400405400002080B582B0F7
:1026880000AF0023FB71FFF73BFD0023FB7107E060
:10269800FB7919460020FFF7E5FCFB790133FB7154
:1026A800FB79032BF4D90E210320FFF7DBFC002173
:1026B8000220FFF7D7FC03210220FFF7D3FC0121FA
:1026C8000220FFF7CFFC02210220FFF7CBFC1121EB
:1026D8000220FFF7C7FC08210320FFF7C3FC2620D0
:1026E800FFF788FC1C20FFF785FC0620FFF782FC1B
:1026F8000720FFF77FFCFFF76BFDFFF79BFDFFF758
:1027080005FEFFF771FEFFF717FDFFF7DBFE02205E
:10271800FFF718FF5548FFF793FFFEF70EFC01225D
:1027280002210120FFF78EF801220A210120FFF77C
:1027380089F8012201210120FFF784F801220521EF
:102748000120FFF77FF8002202210120FFF7F2F8AD
:1027580000220A210120FFF7EDF8002201210120C3
:10276800FFF7E8F8002205210120FFF7E3F800222F
:1027780002210120FFF7C0F900220A210120FFF7FA
:10278800BBF9002201210120FFF7B6F9002205213B
:102798000120FFF7B1F9012202210120FFF73CF9DE
:1027A80001220A210120FFF737F901220121012026
:1027B800FFF732F9012205210120FFF72DF9022246
:1027C80002210020FFF73EF8022203210020FFF734
:1027D80039F8072202210020FFF730FB07220321E6
:1027E8000020FFF72BFB022200210020FFF72AF828
:1027F800022200210020FFF721FB022207210020EE
:10280800FFF720F8022207210020FFF717FB02221A
:1028180006210120FFF716F8022206210120FFF702
:102828000DFBFEF7BFFB1248FEF7DAFBFEF7C9FB0C
:102838001048FEF7E0FBFEF7E9FBFEF779FCFEF730
:10284800A9F9FEF73BF90020FEF75AF96123BB719D
:10285800BB1D19460220FFF788FE6D20FEF7A9FA76
:1028680000F034F900F0D8F8FAE700BF8128000832
:10287800D92800083929000880B582B000AF0023A4
:10288800FB710220FFF79BFE0346FB71FB7918469C
:10289800FEF78FFAFB79312B08D10122052101209F
:1028A800FFF706FA094B01221A700AE0FB79322B6E
:1028B80007D1002205210120FFF7FAF9034B002276
:1028C8001A7000BF0837BD4680BD00BF5800002001
:1028D80080B500AF134B1B78012B0ED1124B1B7820
:1028E800012B0AD10F4B00221A7000F0E1F80022E8
:1028F80002210120FFF7DCF911E00A4B1B78002BBD
:102908000DD10A4B1B78012B09D1064B01221A70F5
:10291800012202210120FFF7CBF900F0D0F800BF17
:1029280080BD00BF59000020580000205A00002038
:1029380080B500AF094B1B78002B0DD1084B1B78D5
:10294800012B09D1054B01221A7001220221012015
:10295800FFF7AEF900F0B3F800BF80BD59000020C2
:102968005800002080B582B000AF00237B60FEF7DE
:102978005BFB78607B68322B11D9254B1B78002BC9
:102988000DD101220A210120FFF792F96420FEF7F8
:1029980063FC00220A210120FFF78AF917E07B680F
:1029A800312B14D81A4B1B78002B10D1194B1B78DC
:1029B800002B0CD1012201210120FFF779F96420B5
:1029C800FEF74AFC002201210120FFF771F97B681C
:1029D800312B07D80E4B1B78012B03D10D4B01224D
:1029E8001A7009E07B68322B06D9094B1B78012B3A
:1029F80002D1084B00221A704FF080431B694FF038
:102A0800804223F00103136100BF0837BD4680BD33
:102A1800580000205A00002080B582B000AF002383
:102A28007B60FEF795FB78607B68132B13D8174BF8
:102A38001B78002B0FD1164B1B78012B0BD100BF35
:102A4800FEF786FB0346132BFAD900F02AF80F4B42
:102A580001221A7015E07B68132B12D80B4B1B78D8
:102A6800012B0ED10A4B1B78012B0AD100BFFEF7B0
:102A78006FFB0346132BFAD900F00CF8034B002226
:102A88001A7000BF0837BD4680BD00BF5B0000203C
:102A98005800002080B500AF0020FEF72CFA00BFD8
:102AA80080BD80B500AFB420FEF725FA00BF80BD19
:102AB80080B500AF0020FEF7FCF900BF80BD80B5EF
:102AC80000AFB420FEF7F5F900BF80BD80B582B035
:102AD80000AF0023FB80184B1B78012B21D1174B2B
:102AE8001B78002B1DD1FEF73DFA0346FB80FB88BF
:102AF8001E2B06D90020FEF703F80220FEF733F854
:102B080016E0FB88172B09D9FB881D2B06D8002057
:102B1800FDF7F6FF0120FEF726F809E0FEF715F8A5
:102B280006E0054B1B78002B02D1FEF70EF8FFE7F5
:102B380000BF0837BD4680BD5A000020590000205C
:102B48000D488546AFF300800C480D490D4A002317
:102B580002E0D458C4500433C4188C42F9D30A4A4A
:102B68000A4C002301E013600432A242FBD300F0B8
:102B780011F8FFF783FDFEE7008001200000002028
:102B880000000020042C0008000000205C00002049
:102B9800FEE7000070B50D4D0D4C641BA410002617
:102BA800A64209D10B4D0C4C00F018F8641BA41078
:102BB8000026A64205D170BD55F8043B984701365A
:102BC800EEE755F8043B98470136F2E7FC2B00087E
:102BD800FC2B0008FC2B0008002C0008F8B500BFEF
:102BE800F8BC08BC9E467047F8B500BFF8BC08BCE6
:042BF8009E4670473E
:042BFC00BD0100080F
:042C0000990100082E
:0400000508002B497B
:00000001FF
